:100000000C945F060C94A6060C94A6060C94A60607
:100010000C94A6060C94A6060C94A6060C94A606B0
:100020000C94A6060C94A6060C94220E0C94F40EC6
:100030000C94911E0C94A6060C94A6060C94A6068D
:100040000C94A6060C94A6060C94A6060C94A60680
:100050000C94A6060C94051F0C94A6060C94A606F8
:100060000C94A6060C94A6060C94A6060C94A60660
:100070000C94A6060C94A6060C94A6060C94A60650
:100080000C94A6060C94A6060C94A6060C94A60640
:100090000C94A6060C94A6060C94A6060C94A60630
:1000A0000C94A6060C94A6060C94A606610F830F6A
:1000B0007110830F7110C80FEB0F711040105310A7
:1000C0003E143E146D146D14CB1409152317231719
:1000D0002215231723162316F716231723170E1797
:1000E000F1A1293A3B3C3D3E3F4041424344454615
:1000F0004748351E1F20212223242526272D2E2A5E
:100100004A4B2B141A0815171C180C12132F3028E1
:100110004D4E39041607090A0B0D0E0F33343149C1
:100120000000E11D1B061905111036370038E54C9B
:100130005200E0E3E200002C0000E6C06500E4505D
:10014000514F293A3B3C3DB7A8A9AA4243444546F2
:100150004748010101010101010101010101010102
:100160004A4B2B141A0815171C180C12132F302881
:100170004D4E39041607090A0B0D0E0F3334314961
:100180000000E11D1B061905111036370038E54C3B
:100190005200E0E3E200002C0000E6C06500E450FD
:1001A000514F0A002530325800626F756E63652129
:1001B0003A20004B6579626F6172642073746172DA
:1001C000742E0A0055534220636F6E66696775721C
:1001D00065642E0A000D0A696E69740A005B445D4D
:1001E000005B435D003C034B006C006100770069DD
:1001F000006100740075007200610020004D006510
:10020000006300680061006E00690063007A006EA0
:1002100000610020004D00610072006B0020003181
:100220000000004603540043004C005400200054DA
:100230000072006F006C00740065006B00200043CA
:10024000006F007200700020004C006500770061B4
:10025000006E0064006F00770073006B006900207F
:1002600000540065006300680000000403090409ED
:10027000028D00050100A032090400000103010104
:100280000009211101000122400007058103080037
:100290000A09040100010301020009211101000102
:1002A000224D000705820308000A09040200010329
:1002B0000000000921110100012236000705830317
:1002C00008000A09040300020300000009211101CB
:1002D0000001222200070584032000010705040312
:1002E000200001090404000103000000092111019C
:1002F00000012239000705850320000112011001C9
:1003000000000008EDFE606001000102000105012F
:100310000906A101050719E029E71500250195083F
:1003200075018102050819012905950575019102DC
:100330009501750391010507190029F7150025019D
:1003400095F875018102C00631FF0974A101097594
:10035000150026FF009520750881020976150026F4
:10036000FF00952075089102C005010980A1018553
:100370000216810026B7001A81002AB70075109571
:10038000018100C0050C0901A101850316010026A9
:100390009C021A01002A9C02751095018100C0057B
:1003A000010902A1010901A1000509190129051589
:1003B00000250195057501810295017503810105EF
:1003C00001093009311581257F95027508810609DB
:1003D000381581257F950175088106050C0A3802BC
:1003E0001581257F950175088106C0C005010906A4
:1003F000A101050719E029E71500250195087501F8
:1004000081029501750881010508190129059505E5
:10041000750191029501750391010507190029FFE6
:10042000150026FF00950675088100C0636F6E7386
:10043000756D65723A20253034580A0073797374EB
:10044000656D3A20253034580A000A0025303258AC
:1004500020006B6579626F6172643A20004C4544FC
:100460003A20253032580A00253032583A202530BB
:1004700031366225730A00722F63203031323334F3
:1004800035363738394142434445460A0064656C85
:100490005F6B65795F6269743A2063616E277420CF
:1004A00064656C3A20253032580A006164645F6BE1
:1004B00065795F6269743A2063616E2774206164B4
:1004C000643A20253032580A00646F6E652E0A00A7
:1004D000626F6F746D61676963207363616E3A2048
:1004E0002E2E2E2000290A002575002F00257500CC
:1004F0005D2800256400200025640020002564009C
:1005000020002564007C0025303258006D6F757323
:10051000656B6579205B62746E7C7820792076202B
:10052000685D287265702F61636C293A205B006DED
:100530006B5F776865656C5F74696D655F746F5F2D
:100540006D6178203D2025640A006D6B5F776865DA
:10055000656C5F6D61785F7370656564203D202513
:10056000640A006D6B5F74696D655F746F5F6D61C8
:1005700078203D2025640A006D6B5F6D61785F73A4
:1005800070656564203D2025640A006D6B5F696EAF
:1005900074657276616C203D2025640A006D6B5F86
:1005A00064656C6179203D2025640A006D6B5F777E
:1005B0006865656C5F74696D655F746F5F6D6178A8
:1005C000203D2025640A006D6B5F776865656C5F70
:1005D0006D61785F7370656564203D2025640A0055
:1005E0006D6B5F74696D655F746F5F6D6178203DE1
:1005F0002025640A006D6B5F6D61785F73706565BF
:1006000064203D2025640A006D6B5F696E7465721D
:1006100076616C203D2025640A006D6B5F64656C1B
:100620006179203D2025640A000A00257500363ACC
:1006300020776865656C5F74696D655F746F5F6D69
:1006400061783A20000A00257500353A2077686500
:10065000656C5F6D61785F73706565643A20000A50
:1006600000257500343A2074696D655F746F5F6DA5
:1006700061783A20000A00257500333A206D6178D0
:100680005F73706565643A20000A00257500323A90
:1006900020696E74657276616C286D73293A20004A
:1006A0000A00257500313A2064656C6179282A3189
:1006B000306D73293A20000A092D2056616C75654A
:1006C00073202D0A004D3E004D25643E20003F0062
:1006D0007365742064656661756C740A00433E201E
:1006E0000077686572652064656C74613A20637593
:1006F00072736F723D25642C20776865656C3D25AB
:10070000640A53656520687474703A2F2F656E2EE5
:1007100077696B6970656469612E6F72672F77699D
:100720006B692F4D6F7573655F6B6579730A000A8E
:10073000092D204D6F7573656B6579202D0A455322
:10074000432F713A09717569740A313A0964656C0D
:100750006179282A31306D73290A323A09696E7439
:10076000657276616C286D73290A333A096D617878
:100770005F73706565640A343A0974696D655F7406
:100780006F5F6D61780A353A09776865656C5F6DF2
:1007900061785F73706565640A363A0977686565E4
:1007A0006C5F74696D655F746F5F6D61780A0A7064
:1007B0003A097072696E742076616C7565730A64AB
:1007C0003A097365742064656661756C74730A75A3
:1007D000703A092B310A646F776E3A092D310A702D
:1007E0006775703A092B31300A7067646F776E3A1B
:1007F000092D31300A0A7370656564203D206465F7
:100800006C7461202A206D61785F73706565642067
:100810002A2028726570656174202F2074696D65C7
:100820005F746F5F6D6178290A003F004D3E2000C4
:10083000433E20004C25640A000A092D20436F6EB8
:10084000736F6C65202D0A4553432F713A097175FA
:1008500069740A6D3A096D6F7573656B65790A0085
:100860000A092D204D61676963202D0A643A0964E5
:10087000656275670A783A096465627567206D611B
:10088000747269780A6B3A096465627567206B65F2
:1008900079626F6172640A6D3A09646562756720F6
:1008A0006D6F7573650A763A0976657273696F6E56
:1008B0000A733A097374617475730A633A09636F52
:1008C0006E736F6C65206D6F64650A302D343A0964
:1008D0006C61796572302D34284631302D463429CB
:1008E0000A506175733A09626F6F746C6F61646569
:1008F000720A653A09656570726F6D0A6E3A094E43
:100900004B524F0A000A002575002E6E6B726F3A2B
:1009100020000A002575002E737761705F626163A5
:100920006B736C6173685F6261636B737061636545
:100930003A20000A002575002E737761705F677298
:100940006176655F6573633A20000A002575002EA5
:100950006E6F5F6775693A20000A002575002E7377
:100960007761705F72616C745F726775693A2000BD
:100970000A002575002E737761705F6C616C745F7F
:100980006C6775693A20000A002575002E63617056
:10099000736C6F636B5F746F5F636F6E74726F6C99
:1009A0003A20000A002575002E737761705F636F2F
:1009B0006E74726F6C5F636170736C6F636B3A20FF
:1009C000000A0025303258006B65796D61705F63F5
:1009D0006F6E6669672E7261773A20000A0025758E
:1009E000002E6D6F7573653A20000A002575002E84
:1009F0006B6579626F6172643A20000A00257500A8
:100A00002E6D61747269783A20000A002575002EF7
:100A1000656E61626C653A20000A0025303258002C
:100A200064656275675F636F6E6669672E72617772
:100A30003A20000A0025750064656661756C745F74
:100A40006C617965723A20003F004E4B524F3A205C
:100A50006F66660A004E4B524F3A206F6E0A007462
:100A6000696D65725F72656164333228293A2025A9
:100A700030346C580A006B6579626F6172645F6E26
:100A80006B726F3A2025580A006B6579626F61724C
:100A9000645F69646C653A2025580A006B65796269
:100AA0006F6172645F70726F746F636F6C3A202550
:100AB000580A00686F73745F6B6579626F61726466
:100AC0005F6C65647328293A2025580A000A092DAD
:100AD00020537461747573202D0A004743433A20F4
:100AE000342E392E32204156522D4C4942433A2061
:100AF000312E382E3073766E204156525F4152436C
:100B0000483A20617672350A004F5054494F4E538F
:100B10003A204C55464120424F4F544D414749439E
:100B2000204D4F5553454B45592045585452414B44
:100B3000455920434F4E534F4C4520434F4D4D4157
:100B40004E44204E4B524F20343039360A00425525
:100B5000494C443A20756E6B6E6F776E20283033A7
:100B60003A32303A3333204A616E2031322032300B
:100B70003138290A005649443A20307846454544E0
:100B80002854434C542054726F6C74656B20436F2F
:100B90007270204C6577616E646F77736B69205457
:100BA00065636829205049443A2030783630363021
:100BB000284B6C6177696174757261204D6563685B
:100BC000616E69637A6E61204D61726B20312920FC
:100BD0005645523A203078303030310A004445537F
:100BE000433A204F70726F6772616D6F77616E6903
:100BF0006520756B6C61646F77652062C3B3672095
:100C0000776965206B74C3B3726120776572736A0C
:100C1000612E204A61206E6965207769656D2E2EF0
:100C20002E0A000A092D2056657273696F6E202DF9
:100C30000A000A6D6F7573653A206F66660A000ACE
:100C40006D6F7573653A206F6E0A000A6B65796285
:100C50006F6172643A206F66660A000A6B6579629A
:100C60006F6172643A206F6E0A000A6D6174726976
:100C7000783A206F66660A000A6D61747269783A84
:100C8000206F6E0A000A64656275673A206F6E0A0B
:100C9000000A64656275673A206F66660A000A0A90
:100CA000626F6F746C6F616465722E2E2E2000432C
:100CB0003E20006565636F6E6669673A0A0011241D
:100CC0001FBECFEFDAE0DEBFCDBF04B603FE27C004
:100CD00080916F0290917002A0917102B0917202A6
:100CE0008730904BA740B04BD1F410926F02109216
:100CF0007002109271021092720214BE84B7877F44
:100D000084BF0FB6F894A8958091600088618093A5
:100D10006000109260000FBEE0E0F8E3099511E07A
:100D2000A0E0B1E0E2E9F7E502C005900D92AA3338
:100D3000B107D9F722E0AAE3B1E001C01D92AF36B6
:100D4000B207E1F70E94500B0C94C72B0C940000E3
:100D5000FF93EF93E0913A01F0913B01309709F056
:100D60000995EF91FF910895FC018591803011F074
:100D7000EFDFFBCF0895FF27E0E230E247FF0CC032
:100D8000419597FF09C0EDE260957095809590952B
:100D9000611D711D811D911D27FF02C0219530E34A
:100DA00050E2AA27660F771F881F991FAA1FA41752
:100DB00010F0A41B63955A95A9F7AA3008F0A95F13
:100DC000A05DAF93F395611571058105910541F71C
:100DD000ED3211F4EF93F395F21718F43F93F39576
:100DE000FBCF8F91B5DFFA95E1F70895E991F9917D
:100DF0008591803021F0853219F0AADFF9CF08956E
:100E000020E0E89455915532C1F3503311F46894C1
:100E100055915A3348F4505390F3220F022E220F6B
:100E2000220F200D250FF4CF0EF421958991999171
:100E3000533619F3533729F1533559F1BC0188273B
:100E40009927E8945C3621F4899199916894559199
:100E5000543639F446EF7EF077FF0DC08FEF9FEFE9
:100E60000AC055374AE039F0583540E121F0523692
:100E700042E009F00895FF93EF937DDFEF91FF913A
:100E8000B7CFFF93EF93FC0181918030B9F360DF1E
:100E9000FBCFFF93EF9368DFF1CFDF93CF93CDB715
:100EA000DEB72596A3DFCF91DF91089584B1807CD2
:100EB00084B985B1807C85B908950E94560780B3B6
:100EC0008C7080BB81B3836F81BB26982E9A8AB1C8
:100ED00080748AB98BB18F6B8BB987B18F7387B9E7
:100EE00088B1806C88B9E8E4F1E0ACE3B1E011923C
:100EF00011921D921D9281E0E435F807C1F7089523
:100F0000AF92BF92CF92DF92EF92FF920F931F9317
:100F1000CF93DF93ACE3AA2EA1E0BA2EE50110E057
:100F200001E0B4EACB2EB1E0DB2E133099F028F4C7
:100F3000113051F0123059F004C0143071F01530F6
:100F400079F0209A28980EC0219A29980BC0229AED
:100F50002A9808C0239A2B9805C0249A2C9802C07E
:100F6000259A2D9880EA8A95F1F789B18295869520
:100F70008770802780FBEE24E0F8F12C86B1082EE4
:100F8000000C990B809590958827990F881F9927B9
:100F9000880F991F8E299F29369903C064E070E05D
:100FA00002C060E070E0862B972B4C9903C068E08C
:100FB00070E002C060E070E0862B972B489903C078
:100FC00040E150E002C040E050E0842B952B1E9998
:100FD00003C020E230E002C020E030E0822B932BFF
:100FE000789903C060E470E002C060E070E0862B96
:100FF000972B799903C040E850E002C040E050E0F0
:10100000842B952B7C9903C020E031E002C020E0C6
:1010100030E0822B932B7D9903C0E0E0F2E002C028
:10102000E0E0F0E08E2B9F2B7E9903C060E074E03F
:1010300002C060E070E0862B972B6FB1062E000C8B
:10104000770B609570959B012227330F221F332762
:10105000322F2227330F330F330FAC01422B532B88
:1010600029B1022E000C330B20953095C901882739
:10107000990F881F9927982F88279295907F842B06
:10108000952B4B9903C020E030E202C020E030E015
:10109000822B932B499903C020E030E402C020E06A
:1010A00030E0822B932B4A9903C020E030E802C045
:1010B00020E030E0822B932B2881398128173907D3
:1010C00049F19983888380910001882301F18091FF
:1010D000500280FF04C089EA91E00E94B40680912A
:1010E000500280FF0CC0809100011F928F93DF920D
:1010F000CF920E944D070F900F900F900F9080910C
:10110000500280FF04C082EA91E00E94B40685E0AC
:10111000809300010E9456071F5F2296163009F047
:1011200004CF809100018823C9F081508093000191
:10113000882339F0AFE9BFE01197F1F700C0000054
:101140000DC0E8E4F1E0D5018D919D915D018193A1
:101150009193B8E4AB16B1E0BB06A9F781E0DF914B
:10116000CF911F910F91FF90EF90DF90CF90BF90A4
:10117000AF900895E82FF0E0EE0FFF1FE85BFE4F01
:1011800080819181089581FF02C0229A01C0229836
:101190002A9808958091780108959FB7F894109245
:1011A00057019FBF90916502943009F057C090910C
:1011B000E9009F703091EC00232F217030FD20E872
:1011C000922B24E02093E9002091EB0020FF43C004
:1011D0002091EE0027FF3FC020915401222321F0EF
:1011E0002091E80025FF37C01092540126E030918D
:1011F000E80035FD15C030916502343061F530915D
:10120000EB0035FD28C0215021F481E0809354018A
:1012100022C0EFE9FFE03197F1F700C00000E7CF0F
:101220008093F1008091E80085FD0AC08091E8007C
:1012300080FFFCCF8091E8008E778093E80006C0A5
:101240008FB7F89421E0209357018FBF9F70909340
:10125000E90080E008959F709093E9008FEF089572
:10126000CF93DF9300D01F92CDB7DEB79C01809162
:101270006502843019F593E099833B832A83909328
:10128000E9008FEF9091E800815095FD06C095ED43
:101290009A95F1F700008111F5CF8091E80085FF64
:1012A0000DC040E050E063E070E0CE0101960E9486
:1012B000120C8091E8008E778093E8000F900F90D9
:1012C0000F90DF91CF910895CF93DF9300D01F92BD
:1012D000CDB7DEB720916502243021F522E02983C5
:1012E0009B838A8383E08093E9008FEF9091E800ED
:1012F000815095FD06C095ED9A95F1F7000081119A
:10130000F5CF8091E80085FF0DC040E050E063E03C
:1013100070E0CE0101960E94120C8091E8008E7759
:101320008093E8000F900F900F90DF91CF91089578
:10133000209165022430F1F422E02093E9002FEFA0
:101340003091E800215035FD06C035ED3A95F1F7B2
:1013500000002111F5CF2091E80025FF0BC040E0EF
:1013600050E065E070E00E94120C8091E8008E77FA
:101370008093E8000895CF93DF9320916502243095
:1013800009F048C0EC0180910B018823E1F08091C5
:101390000C018823C1F085E08093E9008FEF9091E4
:1013A000E800815095FD06C09AE29A95F1F700C0D9
:1013B0008111F5CF8091E80085FF2CC040E050E01E
:1013C00060E270E017C081E08093E9008FEF9091B8
:1013D000E800815095FD06C095ED9A95F1F7000063
:1013E0008111F5CF8091E80085FF14C040E050E006
:1013F00068E070E0CE010E94120C8091E8008E77C8
:101400008093E80080E2FE01A8E5B1E001900D9232
:101410008A95E1F7DF91CF91089581EE91E00E94E6
:10142000B40680916402811109C00E94A70D0E9438
:10143000040E8091E20084608093E20008958DEDB7
:1014400091E00E94B40610926402089508952091DC
:1014500055012F5F822F62E30E945C2B992319F0C4
:1014600020935501089510925501809157018823CA
:1014700071F180916502843041F58091E9008F70AF
:101480002091EC00922F917020FD90E8892B94E040
:101490009093E9009091EB0090FF14C09091EE00C2
:1014A00097FF10C09091E80095FF03C01092F100E3
:1014B000F9CF9091E80090FF05C09091E8009E77E9
:1014C0009093E8008F708093E9001092570108957F
:1014D00042E061EC81E00E94210D42E061EC82E09B
:1014E0000E94210D42E061EC83E00E94210D42E266
:1014F00061EC84E00E94210D42E261EC85E00C94F5
:10150000210D80916702833009F455C030F4813099
:1015100071F0823009F48EC008958A3009F47AC0DF
:101520008B3009F460C0893009F09CC020C08091E4
:101530006602813A09F096C08091E800877F809327
:10154000E80080916A0290916B02892B21F460E29D
:1015500088E591E003C060E080E090E070E00E94E8
:101560005D0C8091E8008B778093E800089580916E
:101570006602813209F076C080916A0290916B0216
:10158000009719F0049709F06DC08091E800877FFB
:101590008093E8008091E80082FD05C0809165029B
:1015A0008111F8CF5FC08091F10080937801809124
:1015B000E8008B7753C080916602813A09F052C0EF
:1015C00080916A0290916B02892B09F04BC0809147
:1015D000E800877F8093E8008091E80080FFFCCFDF
:1015E00080910B0136C0809166028132D9F58091DD
:1015F0006A0290916B02892BA9F58091E800877FA0
:101600008093E8000E94560D8091680280930B0140
:101610000C94451780916602813221F58091E80093
:10162000877F8093E8000E94560D80916902809325
:101630007901089580916602813AA1F48091E800D1
:10164000877F8093E8008091E80080FFFCCF809145
:1016500079018093F1008091E8008E778093E80013
:101660000C94560D08950895089580917801809303
:1016700056011092780180E00E94C3080E941F1258
:101680000C9445170C94350B0E944F1E80916302F9
:10169000882329F00E94781E81110C94FC0B089578
:1016A00084B7877F84BF0FB6F894A89580916000B7
:1016B000886180936000109260000FBE90E080E827
:1016C0000FB6F89480936100909361000FBE8DEC8B
:1016D00098E00E94051E85ED91E00E94B4060E94EC
:1016E000330B0E944A110E94A70D0E94040E8091A4
:1016F000E20084608093E2007894809165028430F7
:10170000E1F784EC91E00E94B4060E944C1181E064
:1017100091E00E94891083EB91E00E94B4060E9440
:10172000340B80916502853019F40E94440BF9CF87
:101730000E945211F6CF0E948D1E80915601809317
:10174000780108950C949B0B292F33272330310502
:10175000C9F064F42130310581F02230310509F0FF
:1017600043C08DE890E02FE632E042C021323105DF
:10177000F1F02232310541F137C082E190E02CEFE7
:1017800032E036C099278130910541F082309105D1
:1017900041F0892B49F5EBE6F2E005C0E3E2F2E027
:1017A00002C0E5EEF1E0849190E09F0121C0653038
:1017B000D8F4E62FF0E0EE0FFF1FEC5DFE4F208126
:1017C000318189E090E014C0653070F470E0FB0175
:1017D000EE0FFF1FE65EFE4F20813181FB01EB5EC5
:1017E000FE4F808190E004C080E090E020E030E097
:1017F000FA0131832083089580E189BD82E189BDAA
:1018000009B400FEFDCF8091D8008F7D8093D80071
:101810008091E00082608093E0008091E00081FD93
:10182000FCCF0895CF92DF92EF92FF920F931F9318
:10183000CF93DF93EC018B016A010E94750D81113A
:1018400033C0C114D10439F0F60180819181081BA5
:10185000190BC80FD91FE12CF12C0115110519F135
:101860008091E80085FD16C08091E8008E77809316
:10187000E800C114D10449F0F60180819181E80E9D
:10188000F91EF182E08285E00FC00E94750D882369
:1018900021F30AC089918093F10001501109FFEFF3
:1018A000EF1AFF0ADACF80E0DF91CF911F910F91FD
:1018B000FF90EF90DF90CF90089520916C023091CF
:1018C0006D022617370748F06115710539F420912C
:1018D000E8002E772093E80001C0B90140E06115CF
:1018E0007105A9F120916502222309F443C0253036
:1018F00009F442C02091E80023FD40C02091E80097
:1019000022FD32C02091E80020FFE9CF4091F30092
:101910002091F20030E0342BFC01CF0161157105FC
:1019200059F02830310540F481918093F1006150E5
:1019300071092F5F3F4FF1CF41E02830310509F0A9
:1019400040E02091E8002E772093E800C8CF4111B5
:10195000C9CF0AC080916502882361F0853061F0AB
:101960008091E80083FD0AC08091E80082FFF2CFF9
:1019700080E0089582E0089583E0089581E008956D
:1019800020916C0230916D022617370748F06115DF
:10199000710539F42091E8002E772093E80001C00A
:1019A000B901FC0120E06115710591F1809165029A
:1019B000882309F440C0853009F43FC08091E800D5
:1019C00083FD3DC08091E80082FD2FC08091E8003A
:1019D00080FFE9CF2091F3008091F20090E0922BFC
:1019E0006115710559F08830910540F424912093D8
:1019F000F1003196615071090196F2CF21E008970C
:101A000009F020E08091E8008E778093E800CBCF4A
:101A10002111CCCF0AC080916502882361F0853006
:101A200061F08091E80083FD0AC08091E80082FFA8
:101A3000F2CF80E0089582E0089583E0089581E088
:101A40000895982F973058F59093E900981739F03A
:101A50007091EC002091ED005091F00003C0242F14
:101A6000762F50E021FF19C03091EB003E7F30937C
:101A7000EB003091ED003D7F3093ED003091EB00B5
:101A800031603093EB007093EC002093ED005093A5
:101A9000F0002091EE0027FF07C09F5FD3CF8F702B
:101AA0008093E90081E0089580E0089580916602C6
:101AB00087FF11C08091E80082FD05C0809165021A
:101AC0008111F8CF11C08091E8008B770BC0809115
:101AD0006502882349F08091E80080FFF8CF80916B
:101AE000E8008E778093E80008952091E40030911B
:101AF000E50095E64091EC00842F817040FF22C004
:101B00008091E80080FD1CC080916502882391F0DF
:101B1000853091F08091EB0085FD10C04091E4008C
:101B20005091E5004217530729F39A01915011F79C
:101B300084E0089582E0089583E0089581E00895A7
:101B400080E008954091E80042FFDECF08950E94B2
:101B5000150E0E941D0EE0EEF0E080818160808312
:101B6000E8EDF0E080818F77808319BCA7EDB0E0CD
:101B70008C918E7F8C9380818F7E80831092640203
:101B800008950F931F93CF93DF930E94150E0E9429
:101B90001D0EC8EDD0E088818F77888388818068AA
:101BA000888388818F7D888319BC1092650210928A
:101BB0006102109263021092620200EE10E0F801DE
:101BC00080818B7F808388818160888342E060E0B0
:101BD00080E00E94210DE1EEF0E080818E7F808325
:101BE000E2EEF0E080818160808380818860808384
:101BF000F80180818E7F8083888180618883DF9176
:101C0000CF911F910F910895E8EDF0E080818F7ED4
:101C10008083E7EDF0E080818160808384E082BF93
:101C200081E0809364020C94C10DE8EDF0E08081C6
:101C30008E7F80831092E20008951092DA00109255
:101C4000E10008951F920F920FB60F9211242F9367
:101C50003F934F935F936F937F938F939F93AF9334
:101C6000BF93EF93FF938091E10082FF0BC08091BF
:101C7000E20082FF07C08091E1008B7F8093E1004A
:101C80000E94270A8091DA0080FF1FC08091D8004F
:101C900080FF1BC08091DA008E7F8093DA008091F4
:101CA000D90080FF0DC080E189BD82E189BD09B402
:101CB00000FEFDCF81E0809365020E940D0A05C001
:101CC00019BC109265020E941F0A8091E10080FFFA
:101CD00019C08091E20080FF15C08091E2008E7FE4
:101CE0008093E2008091E20080618093E200809125
:101CF000D80080628093D80019BC85E0809365028B
:101D00000E94420B8091E10084FF30C08091E2008C
:101D100084FF2CC080E189BD82E189BD09B400FE49
:101D2000FDCF8091D8008F7D8093D8008091E10015
:101D30008F7E8093E1008091E2008F7E8093E200AD
:101D40008091E20081608093E200809161028823AB
:101D500011F084E007C08091E30087FD02C081E0BC
:101D600001C083E0809365020E94A20B8091E10094
:101D700083FF29C08091E20083FF25C08091E100AC
:101D8000877F8093E10082E0809365021092610278
:101D90008091E1008E7F8093E1008091E2008E7F50
:101DA0008093E2008091E20080618093E20042E053
:101DB00060E080E00E94210D8091F00088608093B7
:101DC000F0000E94260AFF91EF91BF91AF919F9181
:101DD0008F917F916F915F914F913F912F910F90D4
:101DE0000FBE0F901F9018951F920F920FB60F9273
:101DF00011242F933F934F935F936F937F938F9310
:101E00009F93AF93BF93CF93DF93EF93FF93C091D3
:101E1000E900CF708091EC00D82FD17080FDD0E820
:101E20001092E9008091F000877F8093F000789411
:101E30000E94380F1092E9008091F0008860809332
:101E4000F000CD2BCF70C093E900FF91EF91DF91AF
:101E5000CF91BF91AF919F918F917F916F915F9142
:101E60004F913F912F910F900FBE0F901F9018959B
:101E70001F93CF93DF93CDB7DEB7AA970FB6F89431
:101E8000DEBF0FBECDBFE6E6F2E088E08E0F909198
:101E9000F10091938E13FBCF0E94810A8091E8009C
:101EA00083FF1FC18091660290916702492F50E025
:101EB0004A30510508F015C1FA01EA5AFF4F0C9457
:101EC0007C2B803881F0823809F00BC180916A0246
:101ED0008F708093E9008091EB0085FB882780F963
:101EE0001092E90006C08091620290916302911104
:101EF00082609091E800977F9093E8008093F100D2
:101F00001092F100C8C0282F2D7F09F0EAC0882365
:101F100019F0823061F0E5C080916802813009F0EB
:101F2000E0C0933009F080E0809363022BC0809181
:101F30006802811127C080916A028F7009F4D1C0B4
:101F40008093E9002091EB0020FF1CC0933021F426
:101F50008091EB00806214C09091EB0090619093AF
:101F6000EB0021E030E0A90102C0440F551F8A9523
:101F7000E2F74093EA001092EA008091EB0088605B
:101F80008093EB001092E9008091E800877F86C083
:101F90008111A7C0109168021F778091E3008078BB
:101FA000812B8093E3008091E800877F8093E80095
:101FB0000E94560D8091E80080FFFCCF8091E300E5
:101FC00080688093E300111102C082E001C083E0C9
:101FD0008093650286C08058823008F082C080916C
:101FE0006802909169028C3D53E0950779F583E092
:101FF0008A838AE289834FB7F894DE01139620E042
:102000003EE051E2E32FF0E050935700E49120FFCF
:1020100003C0E295EF703F5FEF708E2F90E0EA30E3
:1020200010F0C79601C0C0968D939D932F5F243109
:1020300049F74FBF8091E800877F8093E8006AE20C
:1020400070E0CE0101960E945D0C14C0AE014F5F9E
:102050005F4F60916A020E94A40BBC01892B09F4B6
:1020600040C09091E800977F9093E80089819A8121
:102070000E94C00C8091E8008B778093E80031C00B
:10208000803879F58091E800877F8093E80080911F
:1020900061028093F1008091E8008E778093E800E0
:1020A0000E94560D1EC081111CC090916802923092
:1020B000C0F48091E800877F8093E80090936102EC
:1020C0000E94560D80916102811106C08091E3004B
:1020D00087FD02C081E001C084E0809365020E9418
:1020E000680A8091E80083FF0AC08091E800877F3A
:1020F0008093E8008091EB0080628093EB00AA96C9
:102100000FB6F894DEBF0FBECDBFDF91CF911F9108
:10211000089590937F0180937E010895E0917E0160
:10212000F0917F01309721F00190F081E02D09942A
:1021300080E00895EF92FF920F931F93CF93DF9368
:10214000E0917E01F0917F013097B1F18C01028026
:10215000F381E02D09958091500282FF2DC080FF10
:1021600004C082E594E00E94B406E80110E28CE429
:10217000E82E84E0F82E8091500280FF0BC0888109
:102180001F928F93FF92EF920E944D070F900F9036
:102190000F900F90115021961111EDCF80915002A8
:1021A00080FF0AC08AE494E0DF91CF911F910F91E4
:1021B000FF90EF900C94B406DF91CF911F910F9197
:1021C000FF90EF900895E0917E01F0917F013097AC
:1021D00021F00480F581E02D09940895CF93DF93D9
:1021E000EC0180917C0190917D01C817D90709F11C
:1021F000D0937D01C0937C01E0917E01F0917F013D
:102200003097B9F00680F781E02DCE0109958091D5
:10221000500282FF0EC080FF0CC0DF93CF938CE38F
:1022200094E09F938F930E944D070F900F900F9013
:102230000F90DF91CF910895CF93DF93EC018091C0
:102240007A0190917B01C817D90709F1D0937B01DE
:10225000C0937A01E0917E01F0917F013097B9F04F
:102260000084F185E02DCE0109958091500282FF16
:102270000EC080FF0CC0DF93CF938CE294E09F935D
:102280008F930E944D070F900F900F900F90DF914A
:10229000CF9108950C9420120E94BA1E0E945D07EF
:1022A0000C94CC205F926F927F928F929F92AF920C
:1022B000BF92CF92DF92EF92FF920F931F93CF9333
:1022C000DF9300D000D01F92CDB7DEB70E94800709
:1022D00001E811E0512C88248394912C852D0E94D3
:1022E000BA085C01F801C080D180C826D926C11483
:1022F000D10439F453940E5F1F4FF6E05F12EECF16
:102300003FC08091500281FD0E942112E12CF12CEE
:1023100034010E2C02C0660C771C0A94E2F7C3014C
:102320008C219D21892B21F1E9825A8221E0C30170
:102330008A219B21892B09F420E02B830E94C31E54
:102340008160782F9D838C8349815A816B818D8137
:102350000E94571249815A816B817C818D810E9434
:102360003B1EF80180819181682679267182608206
:10237000FFEFEF1AFF0A80E1E816F10449F6BACF41
:102380008FEF89838A831B820E94C31E8160782F0E
:102390009D838C8349815A816B818D810E94571264
:1023A0000E943A1E0E945624109180010E948E10B5
:1023B000181771F10E948E10809380019091500245
:1023C00092FF0EC090FF0CC01F928F938DE594E09A
:1023D0009F938F930E944D070F900F900F900F9037
:1023E000809180010F900F900F900F900F90DF91D0
:1023F000CF911F910F91FF90EF90DF90CF90BF9002
:10240000AF909F908F907F906F905F900C944C1E38
:102410000F900F900F900F900F90DF91CF911F9121
:102420000F91FF90EF90DF90CF90BF90AF909F9073
:102430008F907F906F905F9008950C94C3080895DB
:102440000895EF92FF920F931F93CF93DF9387E747
:1024500094E00E94B406C0E0D0E08EE2E82E81E075
:10246000F82E08E614E08C2F0E94BA080E94201E65
:10247000FF92EF929F938F93DF93CF931F930F93CE
:102480000E944D0721968DB79EB708960FB6F89417
:102490009EBF0FBE8DBFC630D10529F7DF91CF910A
:1024A0001F910F91FF90EF90089508950895CF9395
:1024B000DF93CDB7DEB72B970FB6F894DEBF0FBE14
:1024C000CDBF942F4F83252F588769877A878B87B5
:1024D0004A855B85452B21F02F3F09F59F3FF9F495
:1024E000DE01119686E0FD0111928A95E9F785E0FB
:1024F000FE01379601900D928A95E1F749815A8144
:102500006B817C818D819E810E94221A2B960FB651
:10251000F894DEBF0FBECDBFDF91CF9108954F81FC
:10252000588569857A858B850E943B1ED9CFCF93CC
:10253000882309F4E8C0C82F8238A1F40E948E10C5
:1025400081FDE1C089E30E94FA1C0E94DF1D2FEF8C
:1025500081EE94E0215080409040E1F700C00000FF
:1025600089E315C08338C1F40E948E1080FDCBC072
:1025700083E50E94FA1C0E94DF1D2FEF81EE94E09C
:10258000215080409040E1F700C0000083E50E94A8
:102590004D1DCF910C94DF1D8438A1F40E948E1044
:1025A00082FDB1C087E40E94FA1C0E94DF1D2FEF5C
:1025B00081EE94E0215080409040E1F700C000009F
:1025C00087E4E5CF8CEF8C0F813A48F48C2F0E9482
:1025D000D628811198C08C2F0E94FA1CDACF80E295
:1025E0008C0F883048F4C77081E001C0880FCA950D
:1025F000EAF70E94A51DCDCF8BE58C0F833078F4D0
:10260000C53A29F0C63A31F083E890E005C081E888
:1026100090E002C082E890E0CF910C94EE1088E543
:102620008C0F853108F06FC0C83A61F1C93A69F181
:10263000CA3A71F1CB3A79F1CC3A81F1CD3A89F1CC
:10264000CE3A91F1CF3A99F1C13BA1F1C03BA9F14A
:10265000C23BB1F1C33BB9F1C43BC1F1C53BC9F1C8
:10266000C63BD1F1C73BD9F1C83BE1F1C93BE9F128
:10267000CA3BF1F1CB3BF9F1CC3B09F43FC080E020
:1026800090E03EC082EE90E03BC089EE90E038C022
:102690008AEE90E035C085EB90E032C086EB90E0AA
:1026A0002FC083EB90E02CC084EB90E029C087EB37
:1026B00090E026C08CEC90E023C08DEC90E020C030
:1026C00083E891E01DC08AE891E01AC082E991E0B8
:1026D00017C084E991E014C081E292E011C083E266
:1026E00092E00EC084E292E00BC085E292E008C066
:1026F00086E292E005C087E292E002C08AE292E0C0
:10270000CF910C941C11CF910895882309F466C0D1
:102710008238A1F40E948E1081FF60C089E30E947C
:10272000FA1C0E94DF1D2FEF81EE94E021508040C3
:102730009040E1F700C0000089E315C08338B9F488
:102740000E948E1080FF4AC083E50E94FA1C0E94FE
:10275000DF1D2FEF81EE94E0215080409040E1F7A3
:1027600000C0000083E50E944D1D0C94DF1D8438DD
:10277000A1F40E948E1082FF31C087E40E94FA1CEF
:102780000E94DF1D2FEF81EE94E0215080409040A9
:10279000E1F700C0000087E4E6CF9CEF980F913A84
:1027A00010F390E2980F983050F4877091E001C0D8
:1027B000990F8A95EAF7892F0E94AB1DD6CF9BE52A
:1027C000980F933020F480E090E00C94EE10885A3B
:1027D000853120F480E090E00C941C11089588234A
:1027E00021F00E94A51D0C94DF1D0895882321F07F
:1027F0000E94AB1D0C94DF1D0895BF92CF92DF9213
:10280000EF92FF920F931F93CF93DF9300D000D0EE
:1028100000D0CDB7DEB725E0FC01DE0111960190B6
:102820000D922A95E1F7FC0140815181028163817B
:102830007481258122952F706115710509F403C3F8
:102840005F3F19F44F3F09F4FEC26C01862F7D8370
:102850006C83602F782F8D812E830E947E1C182F11
:10286000B92E0E947D1C0E946D1BEB2DE295EF702E
:10287000F0E0E05AFF4F2E810C947C2B8B2D807F53
:102880009B2D9F70F92E882319F0F29490EFF92276
:10289000002349F0FF2009F483C28F2D0E94B81D48
:1028A0000E94DF1D7DC2812F0E948513FF2009F445
:1028B000CAC28F2D0E94BE1D26960FB6F894DEBFA9
:1028C0000FBECDBFDF91CF911F910F91FF90EF9081
:1028D000DF90CF90BF900C94DF1D8B2D807F9B2DC0
:1028E0009F70F92E803219F0F29480EFF8221123B4
:1028F00019F0113009F12AC00023B1F08F2D2223E5
:1029000051F1213041F526960FB6F894DEBF0FBE87
:10291000CDBFDF91CF911F910F91FF90EF90DF908E
:10292000CF90BF900C94C81D222319F0213009F4D8
:102930008AC20E94CB1D2DC00023F1F0263008F082
:1029400082C20E94A21D8F2129F023C00023F9F02A
:10295000211116C08F2D26960FB6F894DEBF0FBE3C
:10296000CDBFDF91CF911F910F91FF90EF90DF903E
:10297000CF90BF900C94EF13253008F064C209C0CB
:10298000F601858180FF0CC28F708583E3CF211112
:102990001CC28F2D83C12B2D26952695237030E0E8
:1029A0002115310521F021303105D1F04CC2002331
:1029B00021F0812F9B2D937002C080E090E026963D
:1029C0000FB6F894DEBF0FBECDBFDF91CF911F9140
:1029D0000F91FF90EF90DF90CF90BF900C94EE108E
:1029E000002321F0812F9B2D937002C080E090E0A6
:1029F00026960FB6F894DEBF0FBECDBFDF91CF9104
:102A00001F910F91FF90EF90DF90CF90BF900C94AB
:102A10001C11812F002319F00E94DC2202C00E94A9
:102A2000442326960FB6F894DEBF0FBECDBFDF91CC
:102A3000CF911F910F91FF90EF90DF90CF90BF90BB
:102A40000C94C9238B2D837009F07BC00111FBC14D
:102A5000812F829586958770880F880F912F9F70A0
:102A6000C92ED12CE12CF12C082E04C0CC0CDD1C7D
:102A7000EE1CFF1C0A94D2F714FF12C04FE050E086
:102A800060E070E004C0440F551F661F771F8A95F1
:102A9000D2F7CB01BA01609570958095909503C0EF
:102AA00060E070E0CB012B2D269526952370422FF8
:102AB00050E042305105D9F04330510569F16C299D
:102AC0007D298E299F294130510551F126960FB657
:102AD000F894DEBF0FBECDBFDF91CF911F910F9154
:102AE000FF90EF90DF90CF90BF900C94921B6C29D9
:102AF0007D298E299F2926960FB6F894DEBF0FBE3A
:102B0000CDBFDF91CF911F910F91FF90EF90DF909C
:102B1000CF90BF900C94AC1B0E94921BC701B601D2
:102B200026960FB6F894DEBF0FBECDBFDF91CF91D2
:102B30001F910F91FF90EF90DF90CF90BF900C947A
:102B4000781B002319F08B2D817001C08695882396
:102B500009F479C1812F829586958770880F880F37
:102B6000912F9F70C92ED12CE12CF12C082E04C07E
:102B7000CC0CDD1CEE1CFF1C0A94D2F714FF12C013
:102B80004FE050E060E070E004C0440F551F661F46
:102B9000771F8A95D2F7CB01BA0160957095809521
:102BA000909503C060E070E0CB012B2D2695269513
:102BB0002370422F50E042305105D9F04330510587
:102BC00069F16C297D298E299F294130510551F1E8
:102BD00026960FB6F894DEBF0FBECDBFDF91CF9122
:102BE0001F910F91FF90EF90DF90CF90BF900C94CA
:102BF000591C6C297D298E299F2926960FB6F89499
:102C0000DEBF0FBECDBFDF91CF911F910F91FF901F
:102C1000EF90DF90CF90BF900C946B1C0E94591CDA
:102C2000C701B60126960FB6F894DEBF0FBECDBF22
:102C3000DF91CF911F910F91FF90EF90DF90CF9098
:102C4000BF900C94471C103FD1F128F480E4810F11
:102C5000803250F0A0C0123F09F462C008F44BC0AB
:102C6000133F09F472C097C0F12FF071FF2E8B2D26
:102C70008F71002351F00E94E01B812FFF2019F07B
:102C80008295807F68CE8F7066CE0E94011C812F56
:102C9000FF2019F08295807F01C08F7026960FB6B5
:102CA000F894DEBF0FBECDBFDF91CF911F910F9182
:102CB000FF90EF90DF90CF90BF900C94F61300231D
:102CC000B1F0253008F0BFC08B2D8F7126960FB65E
:102CD000F894DEBF0FBECDBFDF91CF911F910F9152
:102CE000FF90EF90DF90CF90BF900C94261C263081
:102CF00008F0A9C0E9CF0023A9F08B2D8F7126968B
:102D00000FB6F894DEBF0FBECDBFDF91CF911F91FC
:102D10000F91FF90EF90DF90CF90BF900C94E01B4D
:102D2000002359F38B2D8F7126960FB6F894DEBFD2
:102D30000FBECDBFDF91CF911F910F91FF90EF900C
:102D4000DF90CF90BF900C94011C002399F08B2D45
:102D50008F7126960FB6F894DEBF0FBECDBFDF9100
:102D6000CF911F910F91FF90EF90DF90CF90BF9088
:102D70000C94CB1B26960FB6F894DEBF0FBECDBFCA
:102D8000DF91CF911F910F91FF90EF90DF90CF9047
:102D9000BF900C94C61B0023A9F0222309F4ADCFE9
:102DA000812F26960FB6F894DEBF0FBECDBFDF9100
:102DB000CF911F910F91FF90EF90DF90CF90BF9038
:102DC0000C949712222309F4ADCF812F26960FB6CB
:102DD000F894DEBF0FBECDBFDF91CF911F910F9151
:102DE000FF90EF90DF90CF90BF900C9485134B2D08
:102DF0004F70612FC6010E94E01F26960FB6F8940F
:102E0000DEBF0FBECDBFDF91CF911F910F91FF901D
:102E1000EF90DF90CF90BF900C94C61A4B2D4F705F
:102E2000612FC60126960FB6F894DEBF0FBECDBF48
:102E3000DF91CF911F910F91FF90EF90DF90CF9096
:102E4000BF900C94E31F26960FB6F894DEBF0FBE1A
:102E5000CDBFDF91CF911F910F91FF90EF90DF9049
:102E6000CF90BF9008950E94C51D0E94941D0E949E
:102E7000DF1D0E94FB240E94C92380E090E00E9495
:102E8000EE1080E090E00C941C110E94B51D0C9493
:102E90003317CF93DF9300D000D01F92CDB7DEB7AA
:102EA000942F4983252F5A836B837C838D834C8198
:102EB0005D81452B39F12F3F11F49F3F19F1498175
:102EC0005A816B817C818D810E947E1C292F2295E5
:102ED0002F7030E02C30310504F52A3031055CF4D8
:102EE000225031092230310568F4853A80F484306B
:102EF00090F4823080F0883E38F4803E60F4845054
:102F0000813A48F080E014C0803FE1F704C090E2CD
:102F1000980F983080F781E00BC02C30310521F4F8
:102F200093FB882780F904C02F303105C9F3EACF1D
:102F30000F900F900F900F900F90DF91CF91089509
:102F4000CF93DF9300D000D01F92CDB7DEB70F90A4
:102F50000F900F900F900F90DF91CF910895CF9326
:102F6000DF9300D000D000D0CDB7DEB726960FB6E5
:102F7000F894DEBF0FBECDBFDF91CF9108951F93B0
:102F8000CF93DF93C0918D0116E080918E01C81719
:102F900099F0D0E01C9FF0011D9FF00D1124E15726
:102FA000FE4F4081518162817381848195810E94AD
:102FB000AF172196C770E9CFDF91CF911F91089588
:102FC0004091BF015091C0016091C1017091C20157
:102FD0008091C3019091C4010C94AF178091C401FA
:102FE00082958F7009F054C08091C101882309F443
:102FF0004FC080918D01A0918E016091BF017091B1
:10300000C0014091C2015091C301B6E08A1709F492
:103010003FC090E041155105C1F17F3F11F46F3F72
:10302000A1F1B89FF001B99FF00D1124E157FE4FB7
:10303000218172132AC02081621327C022812111AD
:1030400024C0238134812417350710F4215031091D
:10305000241B350B283C3105C0F42091C4012F708E
:1030600020612093C40126E0289FF001299FF00DE4
:103070001124EC56FE4F80818F70806180838FEB2E
:1030800091E00E94FD130C94BF1701968770BECF8C
:103090000895BF92CF92DF92EF92FF920F931F930A
:1030A000CF93DF93CDB7DEB761970FB6F894DEBF4D
:1030B0000FBECDBF7C0185E0F701DE011D960190BA
:1030C0000D928A95E1F7D7014C9111965C91119779
:1030D0001296DC90129713960D911C9114973091D3
:1030E000BF016091C0018091C2019091C30100971E
:1030F00009F477C16F3F19F43F3F09F472C1B090F2
:10310000C101BB2009F4C5C02091C40108171907EB
:1031100028F0F801E81BF90BCF0104C080959095C9
:10312000800F911FCC24C394883C910580F0C12C62
:10313000207F09F0CCC0702F198B088B6D2D8989E9
:103140000E94A0178FEB91E00E94FD13B6C0822F62
:10315000807F09F047C0651314C0341312C0D1102A
:1031600010C02F7020612093C4010E94E0178FEBE4
:1031700091E00E94FD138091C401D70115968C93B4
:103180002FC00115110519F15F3F11F44F3FF9F000
:10319000CD2CD1101CC080918D0120918E0136E084
:1031A000821709F45CC090E0389FF001399FF00D60
:1031B0001124E157FE4F6181561306C0608146130A
:1031C00003C06281611103C001968770E9CFCD2CE5
:1031D000DD2009F426C18091C40181608093C4017F
:1031E000C12C1FC1651308C0341306C0D11004C020
:1031F0008091C401D701C9C04D875E87DF86702FDB
:10320000198B088B6D2D89890E9449178823E9F154
:10321000DD20D9F12091C401822F82958F7090E03A
:10322000029774F08091BF019091C00198878F83BD
:1032300019861B870A872C87CE0107960E94FD13EB
:1032400086E0F701AFEBB1E001900D928A95E1F7CE
:103250000E94EE170E94E017CC24C394E2C0702FA6
:10326000198B088B60E089890E947E1C292F22958A
:103270002F7030E0223031050CF0C7C09F7009F08C
:10328000C1C0805E883008F4CCC0C7010E94FD1325
:10329000E3CF0817190708F456C0F801E81BF90B2B
:1032A000CF01883C910508F453C0C12C702F198BB5
:1032B000088B6D2D89890E94A017EFEBF1E086E065
:1032C000DF011D928A95E9F70E94E017AAC06513F5
:1032D00014C0341312C0D11010C08091C401F70182
:1032E0008583C7010E94FD1386E0EFEBF1E0DF016B
:1032F0001D928A95E9F7CB2C94C04D875E87DF86B7
:10330000702F198B088B6D2D89890E94491788238E
:1033100009F4BBCFDD2009F4B8CF2091C401822F7E
:1033200082958F7090E002970CF48ACF8091BF0154
:103330009091C0019A8389831B821D830C832E8305
:10334000CE0101967BCF80959095800F911FA9CFDC
:10335000CD2CDD2009F499CF65132EC034132CC079
:103360002091C40120FD1FC0822F82958F70D9F05B
:10337000D70115962C9315978F3049F08F5F982FB2
:103380009295907F822F8F70892B15968C93C70111
:103390000E94FD1386E0F701AFEBB1E001900D92C2
:1033A0008A95E1F791CF86E0F701AFEBB1E00190AC
:1033B0000D928A95E1F735C04D875E87DF86702FC5
:1033C000198B088B6D2D89890E944917811138CF7F
:1033D0008091C40181608093C401C7010E94FD13E4
:1033E00020C0DD2009F451CF4D875E87DF86702F26
:1033F000198B088B6D2D89890E944917882309F440
:1034000044CF1ECF81113DCF0CC0243031050CF0CC
:103410003CCF9F7009F435CFF7019581907F09F07B
:1034200030CF8C2D61960FB6F894DEBF0FBECDBFA6
:10343000DF91CF911F910F91FF90EF90DF90CF9090
:10344000BF9008951F93CF93DF93CDB7DEB72C972E
:103450000FB6F894DEBF0FBECDBF4F835887698784
:103460007A878B879C87CE0107960E94491888230C
:1034700069F08F8198852A853B85232BF1F19F3F49
:1034800009F063C08F3F09F060C037C086E0FE01DD
:103490003796DE01119601900D928A95E1F76F81C2
:1034A0007885EA85FB85309741F17F3F11F46F3FC6
:1034B00021F120918E0130E0C90101968770992792
:1034C00040918D0150E08417950709F447C0698346
:1034D0007A83FD83EC8396E0929FD001939FB00D99
:1034E0001124A157BE4FFE01319601900D929A957D
:1034F000E1F780938E010E94BF1716E080918D0145
:1035000090918E018917C1F1189FC0011124815734
:103510009E4F0E944918882379F1E0918D011E9FEA
:10352000F0011124E157FE4F408151816281738186
:10353000848195810E94AF1780918D0190E0019662
:103540008770992780938D01D9CF4F8158856985E0
:103550007A858B859C850E94AF17CFCF0E94451737
:1035600010928E0110928D01EFEBF1E086E0DF0109
:103570001D928A95E9F7C1CF2C960FB6F894DEBF5D
:103580000FBECDBFDF91CF911F910895DF92EF92D3
:10359000FF920F931F93CF93DF93FC01892B09F4C4
:1035A0008AC0E12CF12CDD24D394EF012196849183
:1035B000853709F461C058F4843708F04EC0843070
:1035C00008F06AC08130D1F0823071F174C0883760
:1035D00009F45DC050F4863709F455C0873709F007
:1035E0006AC08E2D0E94B21D54C09CE7980F903780
:1035F00008F061C08F770E94851350C08F010E5F65
:103600001F4FFE01849190E2980F983050F487701C
:10361000FD2D01C0FF0F8A95EAF78F2F0E94B81D7C
:1036200014C00E94971213C08F010E5F1F4FFE013E
:10363000C49180E28C0F883060F4C7708D2D01C07A
:10364000880FCA95EAF70E94BE1D0E94DF1DE8019F
:1036500025C08C2F0E948513FACF9F012E5F3F4F0C
:10366000FE01C491CC2369F08FE99FE00197F1F747
:1036700000C00000C150F6CF9F012E5F3F4FFE01FA
:10368000F490E9010BC00E94A21DE82E07C00E9421
:10369000B51D0E94DF1D02C00E9497128F2D882346
:1036A00041F0EFE9FFE03197F1F700C000008150F1
:1036B000F6CFFE017ACFDF91CF911F910F91FF904E
:1036C000EF90DF9008956093250270932602809317
:1036D0002702909328020C944B1E089560932902B0
:1036E00070932A0280932B0290932C020C944A1E12
:1036F0000F931F930091290210912A0220912B020F
:1037000030912C02602B712B822B932B609329021A
:1037100070932A0280932B0290932C021F910F9199
:103720000C944A1E0F931F930091290210912A02B4
:1037300020912B0230912C0260237123822393234A
:103740006093290270932A0280932B0290932C029B
:103750001F910F910C944A1E0F931F930091290201
:1037600010912A0220912B0230912C0260277127A0
:10377000822793276093290270932A0280932B0259
:1037800090932C021F910F910C944A1E60E070E000
:10379000CB010C94631B0F931F9341E050E060E05A
:1037A00070E08A019B0104C0000F111F221F331F0C
:1037B0008A95D2F7C901B8011F910F910C94631B30
:1037C0000F931F9341E050E060E070E004C0440FAD
:1037D000551F661F771F8A95D2F780912502909119
:1037E0002602A0912702B09128028A019B01082B92
:1037F000192B2A2B3B2BC901B8011F910F910C9457
:10380000631B0F931F9341E050E060E070E004C041
:10381000440F551F661F771F8A95D2F74095509524
:10382000609570958091250290912602A0912702C3
:10383000B09128028A019B01082319232A233B23E4
:10384000C901B8011F910F910C94631B0F931F9333
:1038500041E050E060E070E004C0440F551F661F77
:10386000771F8A95D2F78091250290912602A09128
:103870002702B09128028A019B01082719272A27CD
:103880003B27C901B8011F910F910C94631B0F9343
:103890001F9300912502109126022091270230915A
:1038A0002802602B712B822B932B1F910F910C946C
:1038B000631B0F931F930091250210912602209104
:1038C00027023091280260237123822393231F91C2
:1038D0000F910C94631B0F931F930091250210917D
:1038E0002602209127023091280260277127822723
:1038F00093271F910F910C94631B08958F929F92B1
:10390000AF92BF92DF92EF92FF920F931F93CF93EC
:10391000DF9300D000D01F92CDB7DEB76B837C83DE
:103920008D838A018C819D81892B21F01F3F29F491
:103930004F3F19F480E090E04CC08B818823C9F19F
:103940008090290290902A02A0902B02B0902C0225
:103950008091250290912602A0912702B091280221
:10396000882A992AAA2ABB2A8FE1E82EF12CD501B0
:10397000C4010E2C04C0B695A795979587950A9417
:10398000D2F780FF07C0DE2CB8018E2D0E94FF1FEA
:10399000019729F481E0E81AF10848F7D12C80E179
:1039A000189FF0011124E00FF11DEB53FE4FD08260
:1039B00009C080E1189FF0011124E00FF11DEB53C5
:1039C000FE4FD08009831A8369817A818D2D0E94F0
:1039D000FF1F0F900F900F900F900F90DF91CF91DE
:1039E0001F910F91FF90EF90DF90BF90AF909F904D
:1039F0008F90089590910B01992321F090910C01E3
:103A0000911109C020910D0130910E01F9013296FA
:103A10009FEF40E030C0982F9695969596959F31F0
:103A2000A0F4E0910D01F0910E01E90FF11D8770F6
:103A300021E030E0A90102C0440F551F8A95E2F74A
:103A4000CA019181892B818308959091500290FF42
:103A500023C01F928F938BEA94E09F938F930E94D1
:103A60004D070F900F900F900F9008959F3F39F0E2
:103A70004F5F4E3141F051915813F8CF0DC05111A5
:103A8000F7CF942FF5CF9F3F39F0F901E90FF11DE2
:103A900097FDFA9582830895089590910B019923DB
:103AA00021F090910C01911109C020910D013091EC
:103AB0000E01F9013296205E3F4F30C0982F969547
:103AC000969596959F31A8F4E0910D01F0910E0125
:103AD000E90FF11D877021E030E0A90102C0440F19
:103AE000551F8A95E2F7CA018095918189238183C8
:103AF00008959091500290FF16C01F928F938DE809
:103B000094E09F938F930E944D070F900F900F901A
:103B10000F9008953196E217F30729F090819813DA
:103B2000F9CF1082F7CF089581E090E0E0910D0188
:103B3000F0910E01E80FF91F108201968032910575
:103B4000A9F7089580914F02089590914F02892B13
:103B500080934F020895809590914F02892380931E
:103B60004F02089580934F02089510924F020895D6
:103B700090914E02892B80934E02089580959091EA
:103B80004E02892380934E02089510924E020895AA
:103B900080932D02089510922D02089580910D01B9
:103BA00090910E01FC0131969C01205E3F4F80E018
:103BB000919191118F5FE217F307D1F70895E0918A
:103BC0000D01F0910E0180914F028083E0910D0173
:103BD000F0910E01908180914E02892B808380911B
:103BE0002D02882361F0E0910D01F0910E0190818A
:103BF000892B80830E94CE1D811110922D0280910D
:103C00000D0190910E010C949A1090933B018093BA
:103C10003A0108958295982F9C7C392F36953695D8
:103C2000282F237344E0249FC0011124932F982B45
:103C3000292F2A7A2695892F8575880F822B08953A
:103C40001F93CF93DF931F92CDB7DEB799830E9466
:103C50000A1E182F9981892F0E940A1E212F30E0F9
:103C6000322F2227A901482BCA010F90DF91CF9153
:103C70001F9108950895CF93DF9300D000D01F9235
:103C8000CDB7DEB70F900F900F900F900F90DF9190
:103C9000CF910895089508950C941D120895809170
:103CA0006502843021F11092510220E488E190E015
:103CB0000FB6F894A895809360000FBE2093600023
:103CC00083B7817F846083BF83B7816083BF78942B
:103CD000889583B78E7F83BF0FB6F894A89580919F
:103CE0006000886180936000109260000FBE0895AC
:103CF000CF930E9455120E9480070E945612C0E086
:103D00008C2F0E94BA08892B29F4CF5FC630C1F7E7
:103D100080E001C081E0CF9108950E941F120C94B1
:103D200045171F920F920FB60F9211248F939F93F6
:103D3000AF93BF9380915102811113C080915202C1
:103D400090915302A0915402B09155024196A11D49
:103D5000B11D8093520290935302A0935402B093EA
:103D60005502BF91AF919F918F910F900FBE0F9011
:103D70001F90189582E084BD93E095BD9AEF97BDA2
:103D800080936E0008952FB7F8948091520290911D
:103D90005302A0915402B09155022FBF08952FB73E
:103DA000F894609152027091530280915402909164
:103DB00055022FBF0895CF92DF92EF92FF920F939B
:103DC0001F932FB7F8944091520250915302609183
:103DD0005402709155022FBF6A017B01EE24FF242B
:103DE0008C0120E030E0C016D106E206F30610F4A4
:103DF000415051099A01281B390BC9011F910F919C
:103E0000FF90EF90DF90CF9008951F920F920FB622
:103E10000F9211248F939F93AF93BF93809152027F
:103E200090915302A0915402B09155020196A11DA8
:103E3000B11D8093520290935302A0935402B09309
:103E40005502BF91AF919F918F910F900FBE0F9030
:103E50001F9018950E94A70DF8942FEF87EA91E61E
:103E6000215080409040E1F700C0000087E090EBD7
:103E7000DC0180936F0290937002A0937102B09363
:103E800072029CE088E10FB6F894A89580936000D8
:103E90000FBE90936000FFCF8D3B60F4883A90F5A1
:103EA000853A28F5843008F5813009F086C081E034
:103EB00090E00895883E98F4803EB8F48F3B09F076
:103EC0007CC00E9445172FEF80E792E02150804090
:103ED0009040E1F700C000000E942A1F6EC0803FA2
:103EE00008F46BC090E09065089590E00895853ADD
:103EF00021F0863A21F033E803C031E801C032E80E
:103F000020E458C0883A51F1893A59F18A3A59F176
:103F10008B3A59F18C3A59F18D3A59F18E3A59F15F
:103F20008F3A59F1813B59F1803B59F1823B59F16C
:103F3000833B59F1843B59F1853B59F1863B61F153
:103F4000873B61F1883B61F1893B61F18A3B61F11B
:103F50008B3B61F18C3B61F130E001C032EE24E437
:103F600029C039EEFCCF3AEEFACF35EBF8CF36EB7D
:103F7000F6CF33EBF4CF34EBF2CF37EBF0CF3CECB2
:103F8000EECF3DECECCF33E805C03AE803C032E9B0
:103F900001C034E925E40EC031E20BC033E209C0B0
:103FA00034E207C035E205C036E203C037E201C0A3
:103FB0003AE226E4832F922F089580E090E008955E
:103FC00080E090E008950895E72FF0E096E0899F63
:103FD000E00DF11D112484E0EE0FFF1F8A95E1F73B
:103FE000E60FF11DEE51FF4F84910895E82FF0E0A8
:103FF000EE0FFF1FE05AF0408591949108950E94C2
:10400000E41F803EA8F4803C00F5813309F45CC0D5
:1040100038F4893209F452C08A3209F45BC05FC0B7
:104020008933B1F08238A1F0853309F441C057C01B
:10403000833E41F128F4803E99F0823EB9F04FC0B2
:10404000863E31F1873E71F14AC00E94F61F089505
:1040500090916E0290FD02C091FF41C080EE3FC082
:1040600080916E0280FFFACF89E339C080916E02A1
:1040700082FF0CC080916E0284FF02C080E02FC0DE
:1040800083EE2DC080916E0282FFF4CF82EE27C0B6
:1040900080916E0283FF0AC080916E0284FDEECF94
:1040A00087EE1DC080916E0283FFF6CF86EE17C0AB
:1040B00080916E0285FF06C089E211C080916E0278
:1040C00085FFFACF85E30BC080916E0286FF06C0A4
:1040D0008AE205C080916E0286FFFACF81E30E94DA
:1040E0004C1F0895AF92BF92CF92DF92EF92FF9252
:1040F0000F931F93CF937C01C0E0CC24C394D12CA9
:104100008C2F0E94BA085C0100E010E0C601002E6E
:1041100002C0880F991F0A94E2F78A219B21892BFC
:10412000B1F0602F7C2F80E00E94FF1F9C018E1554
:104130009F0559F0832F807E932F907C11F0803A59
:1041400031F430E02E153F0511F481E009C00F5F16
:104150001F4F00311105D1F6CF5FC63089F680E0E0
:10416000CF911F910F91FF90EF90DF90CF90BF9074
:10417000AF900895CF93DF93EC018CE290E00E9422
:104180007220882329F0CE01DF91CF910C94722008
:1041900080E0DF91CF910895CF930E943422811166
:1041A00002C00E941A2280ED94E00E94B406C5E687
:1041B000C15049F00E9480078FE39CE90197F1F715
:1041C00000C00000F5CF89EC94E00E94B40689E2BB
:1041D00090E00E94BA2081112BC18AE290E00E94F7
:1041E000BA2081110E941A2285E090E00E94BA2034
:1041F00081110E942A1F0E944E1E0E943F2280931E
:10420000500287E090E00E94BA208823C1F18BE140
:1042100090E00E94BA20882351F08091500281FBE7
:10422000222720F991E0922790FB81F90FC08EE0C0
:1042300090E00E94BA20882361F08091500282FBB6
:10424000222720F991E0922790FB82F98093500277
:1042500016C080E190E00E94BA209091500288231D
:1042600041F093FB222720F981E0822780FB93F91C
:1042700004C0892F809580FB90F990935002809123
:1042800050020E9443220E94512280936E0280EECF
:1042900090E00E94BA20882341F080916E02982F0E
:1042A000909590FB80F980936E0289E390E00E94E4
:1042B000BA20882359F080916E0281FB222720F9D1
:1042C00091E0922790FB81F980936E0282EE90E05C
:1042D0000E94BA20882359F080916E0282FB222727
:1042E00020F991E0922790FB82F980936E0286EE8E
:1042F00090E00E94BA20882359F080916E0283FBDF
:10430000222720F991E0922790FB83F980936E0297
:1043100083EE90E00E94BA20882359F080916E02CB
:1043200084FB222720F991E0922790FB84F9809367
:104330006E0285E390E00E94BA20882359F08091B4
:104340006E0285FB222720F991E0922790FB85F9E8
:1043500080936E0281E390E00E94BA20882359F096
:1043600080916E0286FB222720F991E0922790FB34
:1043700086F980936E0281E190E00E94BA20882342
:1043800059F080916E0287FB222720F991E0922755
:1043900090FB87F980936E0280916E020E945522F5
:1043A00080916E0287FB882780F980930C0187E259
:1043B00090E00E94BA20C82F8EE190E00E94BA20BF
:1043C0008111C2608FE190E00E94BA208111C46027
:1043D00080E290E00E94BA208111C86081E290E002
:1043E0000E94BA208111C06182E290E00E94BA204E
:1043F0008111C06283E290E00E94BA208111C06402
:1044000084E290E00E94BA20882311F0C06802C0C4
:10441000CC2329F08C2F0E944C226C2F03C00E94C9
:104420004822682F70E080E090E0CF910C946E1BE2
:10443000CF9108956DEE7EEF80E090E00E94B22B68
:1044400060E082E090E00E94A42B60E083E090E0D6
:104450000E94A42B60E084E090E00E94A42B60E026
:1044600085E090E00C94A42B80E090E00E949E2BCD
:1044700021E08D3E9E4F09F020E0822F089582E0DA
:1044800090E00C94962B682F82E090E00C94A42B83
:1044900083E090E00C94962B682F83E090E00C94DE
:1044A000A42B84E090E00C94962B682F84E090E09D
:1044B0000C94A42B8091580280FF0BC060911201D4
:1044C00085E0689FB001112475956795759567958E
:1044D0002BC081FF09C06091120185E0689FB00187
:1044E00011247595679520C082FF07C06091120165
:1044F00085E0689FB001112417C09091590299235B
:10450000D1F060911101961788F72091120185E092
:10451000289F90011124929FA001939F500D112478
:1045200070E0CA010E94682B6038710540F4611583
:10453000710539F002C065E070E0862F08958FE7BD
:10454000089581E008958091580280FF08C060912D
:10455000100170E0759567957595679521C081FF8D
:1045600006C06091100170E07595679519C082FFD3
:1045700004C06091100170E010C09091590299231D
:10458000C1F060910F019617A0F780911001899FEB
:10459000C001112470E00E94682B6038710528F476
:1045A0006115710521F0862F08958FE7089581E048
:1045B000089561E070E0F4CF803F21F40E945A2218
:1045C000819504C0813F29F40E945A2280935C02A5
:1045D0000895823F21F40E945A22819504C0833FAE
:1045E00029F40E945A2280935B020895893F19F4AE
:1045F0000E94A32205C08A3F31F40E94A322819524
:1046000080935D0208958B3F21F40E94A32281953F
:1046100004C08C3F29F40E94A32280935E02089577
:10462000843F21F480915A02816017C0853F21F4B4
:1046300080915A02826011C0863F21F480915A0213
:1046400084600BC0873F21F480915A02886005C0C6
:10465000883F31F480915A02806180935A02089514
:104660008D3F21F48091580281600BC08E3F21F470
:1046700080915802826005C08F3F29F480915802D2
:104680008460809358020895803F39F480915C02E1
:1046900087FF6CC010925C0269C0813F29F4809151
:1046A0005C021816BCF362C090915B02823F29F451
:1046B00097FF5CC010925B0259C0833F19F4191632
:1046C000CCF354C0893F41F480915D0218160CF080
:1046D0004DC010925D024AC08A3F29F480915D026C
:1046E00087FF44C0F6CF8B3F39F480915E0287FF8D
:1046F0003DC010925E023AC08C3F29F480915E0268
:104700001816BCF333C0843F21F480915A028E7F87
:1047100017C0853F21F480915A028D7F11C0863FDA
:1047200021F480915A028B7F0BC0873F21F4809146
:104730005A02877F05C0883F31F480915A028F7EEC
:1047400080935A0213C08D3F21F4809158028E7FCE
:104750000BC08E3F21F4809158028D7F05C08F3FA2
:1047600029F4809158028B7F8093580280915B02DC
:1047700081110EC080915C0281110AC080915D029E
:10478000811106C080915E02811102C0109259020F
:1047900008958091500283FF7EC08CE095E00E94D6
:1047A000B40680915A021F928F9387E095E09F9301
:1047B0008F930E944D0785E095E00E94B40680919A
:1047C0005B02282F082E000C330B3F938F9382E05F
:1047D00095E09F938F930E944D0780E095E00E94A3
:1047E000B40680915C02282F082E000C330B3F93F7
:1047F0008F938DEF94E09F938F930E944D078BEFE3
:1048000094E00E94B40680915D02282F082E000CCF
:10481000330B3F938F9388EF94E09F938F930E9485
:104820004D0786EF94E00E94B40680915E02282F27
:10483000082E000C330B3F938F9383EF94E09F93EC
:104840008F930E944D0780EF94E00E94B406809100
:1048500059021F928F938DEE94E09F938F930E9445
:104860004D078BEE94E00E94B406809158021F928F
:104870008F9388EE94E09F938F930E944D0785EE6F
:1048800094E00E94B4068DB79EB74C960FB6F8948C
:104890009EBF0FBE8DBF8AE592E00E94E3100E948A
:1048A000C31E909357028093560208951F93CF938F
:1048B000DF9380915602909157020E94DB1EAC015B
:1048C00090915902992321F02091130130E006C004
:1048D000209114018AE0289F900111244217530768
:1048E00008F485C080915B02C0915C02D0915D02AA
:1048F00010915E02811107C0C11175C0D11173C042
:10490000111171C074C09F3F19F09F5F90935902BD
:10491000181624F40E945A2280935B0280915B0255
:1049200087FF05C00E945A22819580935B021C1666
:1049300024F40E945A2280935C0280915C0287FFDB
:1049400005C00E945A22819580935C0260915B02AF
:10495000662331F1C0915C02CC2311F1062E000CCC
:10496000770B880B990B0E94632A23E333E343E31D
:104970005FE30E94C72A0E942B2A60935B026C2F80
:10498000CC0F770B880B990B0E94632A23E333E348
:1049900043E35FE30E94C72A0E942B2A60935C02D4
:1049A0001D1624F40E94A32280935D0280915D0273
:1049B00087FF05C00E94A322819580935D02111696
:1049C00024F40E94A32280935E0280915E0287FFFE
:1049D00005C00E94A322819580935E02DF91CF9152
:1049E0001F910C94C9239F3F09F08FCF97CFDF9180
:1049F000CF911F910895EAE5F2E085E0DF011D9275
:104A00008A95E9F7109259021092580208958FE2A0
:104A100097E00E94B4061F9281E08F931F9285E079
:104A20008F9381EE96E09F938F930E944D070F9096
:104A30000F900F900F900F900F9008958330E9F131
:104A400028F4813061F0823009F10895853009F44D
:104A500062C008F449C0863009F474C0089580919A
:104A60001401262F30E0280F311D2F3F310524F48B
:104A7000680F6093140103C08FEF8093140180913D
:104A800014011F928F938AE196E072C08091130106
:104A9000262F30E0280F311D2F3F310524F4680FF9
:104AA0006093130103C08FEF809313018091130172
:104AB0001F928F9388E096E05BC080911201262FB1
:104AC00030E0280F311D2F3F310524F4680F60932B
:104AD000120103C08FEF80931201809112011F9287
:104AE0008F9385EF95E044C080911101262F30E02F
:104AF000280F311D2F3F310524F4680F60931101F9
:104B000003C08FEF80931101809111011F928F9349
:104B100080EE95E02DC080911001262F30E0280F07
:104B2000311D2F3F310524F4680F6093100103C03D
:104B30008FEF80931001809110011F928F9387EC6B
:104B400095E016C080910F01262F30E0280F311D0F
:104B50002F3F310524F4680F60930F0103C08FEFDE
:104B600080930F0180910F011F928F938CEA95E043
:104B70009F938F930E944D070F900F900F900F906F
:104B80000895833081F128F4813059F08230D1F0DA
:104B90000895853009F449C0B8F1863009F456C04B
:104BA000089580911401681720F4861B80931401E6
:104BB00002C010921401809114011F928F938DE90D
:104BC00095E054C080911301681720F4861B8093F0
:104BD000130102C010921301809113011F928F9351
:104BE0008BE895E043C080911201681720F4861B82
:104BF0008093120102C010921201809112011F9243
:104C00008F9388E795E032C080911101681720F4F6
:104C1000861B8093110102C0109211018091110135
:104C20001F928F9383E695E021C080911001681751
:104C300020F4861B8093100102C010921001809115
:104C400010011F928F938AE495E010C080910F01AC
:104C5000681720F4861B80930F0102C010920F0189
:104C600080910F011F928F938FE295E09F938F9316
:104C70000E944D070F900F900F900F900895CF93C3
:104C8000C82F1F928F9384E398E09F938F930E9485
:104C90004D0781E090E0A0E0B0E0BC01CD0104C090
:104CA000660F771F881F991FCA95D2F70E946E1B47
:104CB0000F900F900F900F90CF910C944517CF93BA
:104CC0008B3109F4CBC108F049C08E3009F4DAC148
:104CD00000F5873009F4A9C1A8F4863009F05AC25A
:104CE00080915002817F8E7F8093500289E398E00B
:104CF0000E94B4068FEA9CE00E94B40681E0809393
:104D0000600291C1883009F45BC08B3009F487C11F
:104D100041C2813109F426C220F4803109F4C6C1B0
:104D200039C2863109F4DDC1893109F033C283E229
:104D30009CE00E94B4068DED9BE00E94B40685E7DE
:104D40009BE00E94B4068EE49BE00E94B40689E0DA
:104D50009BE00E94B4068BED9AE063C1853309F4B1
:104D600013C268F4873209F40FC228F48E3108F4B4
:104D700011C28D510CC2893209F406C20BC28334B0
:104D800038F48A3308F002C2883309F448C102C2F9
:104D9000833409F4F9C1883409F0FCC10E94451735
:104DA0008EE99CE00E94B4069FEF23ED80E39150D2
:104DB00020408040E1F700C000000E942A1F33C15C
:104DC00083EB9CE00E94B40688E39AE00E94B4065C
:104DD0000E9448221F928F9385E39AE09F938F93BE
:104DE0000E944D0783E39AE00E94B4060E943F228E
:104DF000C82F80E29AE00E94B4061F92CF938BE105
:104E00009AE09F938F930E944D0789E19AE00E9458
:104E1000B4068FE09AE00E94B4068C2F81701F9236
:104E20008F938CE09AE09F938F930E944D078AE0C6
:104E30009AE00E94B40680E09AE00E94B406C1FBAA
:104E4000882780F91F928F938DEF99E09F938F931E
:104E50000E944D078BEF99E00E94B4068FEE99E017
:104E60000E94B406C2FB882780F91F928F938CEEB4
:104E700099E09F938F930E944D078AEE99E00E94DC
:104E8000B40681EE99E00E94B406C3FBCC27C0F9BA
:104E90001F92CF938EED99E09F938F930E944D07C1
:104EA0008CED99E00E94B4060E945122C82F88EC34
:104EB00099E00E94B4061F92CF9383EC99E09F93F0
:104EC0008F930E944D0781EC99E00E94B40688EA16
:104ED00099E00E94B4068C2F81701F928F9385EA0F
:104EE00099E09F938F930E944D078DB79EB7809650
:104EF0000FB6F8949EBF0FBE8DBF83EA99E00E9463
:104F0000B4068CE899E00E94B406C1FB882780F9BA
:104F10001F928F9389E899E09F938F930E944D078A
:104F200087E899E00E94B40685E799E00E94B406FC
:104F3000C2FB882780F91F928F9382E799E09F93A5
:104F40008F930E944D0780E799E00E94B4068EE59A
:104F500099E00E94B406C3FB882780F91F928F93C3
:104F60008BE599E09F938F930E944D0789E599E027
:104F70000E94B4068FE499E00E94B406C4FB88271F
:104F800080F91F928F938CE499E09F938F930E94F6
:104F90004D078AE499E00E94B40688E399E00E94F4
:104FA000B406C5FB882780F91F928F9385E399E0AB
:104FB0009F938F930E944D0783E399E00E94B4066C
:104FC00087E199E00E94B406C6FB882780F91F920A
:104FD0008F9384E199E09F938F930E944D0782E124
:104FE00099E00E94B4068AE099E00E94B406C7FBEB
:104FF000CC27C0F91F92CF9387E099E09F938F93BE
:105000000E944D0785E099E00E94B4068DB79EB7D7
:105010004C960FB6F8949EBF0FBE8DBF04C080E6BD
:1050200098E00E94B406C1E0BAC080915002C82F37
:10503000C17080FF09C081E99CE00E94B4068091A4
:105040005002817F8E7F47C085E89CE00E94B406B5
:1050500080915002816080935002E5CF9091500280
:1050600091FBCC27C0F981E0C827892FC0FB81F9CB
:1050700080935002CC2319F088E79CE027C08AE691
:105080009CE0CFCF9091500292FBCC27C0F981E0F9
:10509000C827892FC0FB82F980935002CC2319F0D6
:1050A0008BE59CE013C08BE49CE0BBCF9091500259
:1050B00093FBCC27C0F981E0C827892FC0FB83F977
:1050C00080935002CC2351F08FE39CE00E94B40601
:1050D0008091500281608093500261C082E39CE025
:1050E000A0CF8DEC9AE00E94B4060E948E101F9211
:1050F0008F9383EB9AE09F938F930E944D0780914B
:105100000B011F928F938CE99AE09F938F930E94DB
:105110004D07809179011F928F9389E89AE09F93C0
:105120008F930E944D0780910C011F928F9386E709
:105130009AE09F938F930E944D070E94CF1E9F93EA
:105140008F937F936F938FE59AE09F938F930E9445
:105150004D078DB79EB746960FB6F8949EBF0FBE0B
:105160008DBF61CF0E944517C0910C0181E0C82717
:10517000C0930C01CC2329F085E59AE00E94B40687
:105180000EC08AE49AE04DCF80E001C089530E94AE
:105190003F2649CF88E49AE00E94B406C0E08C2FF5
:1051A000CF91089580E0089580E00895CF93C82FAF
:1051B00080916002813071F020F0823009F44BC0A0
:1051C00042C1E0910D01F0910E018081823209F01F
:1051D0003CC107C0E0910D01F0910E018081823247
:1051E00061F48C2F0E94D228811104C08C2F0E9460
:1051F0005F262FC081E090E02CC08C2F0E94D42825
:10520000811126C0C431E1F070F4CB3081F0C0319F
:10521000D1F40E9407258CE298E00E94B40682E057
:105220008093600215C0C93259F0C83361F489E334
:1052300098E00E94B40680E398E00E94B40608C09B
:105240001092600204C18AE298E00E94B406FFC096
:1052500081E08170FEC0C43228F5CE3108F0C1C0B3
:10526000CB30A1F1D0F4C73009F0D3C08EE18093E8
:10527000140182E3809313018AE08093120184E198
:105280008093110188E08093100188E280930F01E0
:1052900080ED96E00E94B406BFC0C33149F1C4312D
:1052A000C1F0B7C0CB3409F4A9C028F4C93289F0E1
:1052B000C83361F0AEC0C13509F49EC0C23509F4EF
:1052C00099C0CE3409F0A5C06AE09EC00E940725AF
:1052D000A3C080915F02882319F010925F029CC0E6
:1052E0008DED96E00E94B40681E080936002B1C02B
:1052F00087EB96E00E94B40685EA96E00E94B40629
:10530000809114011F928F9382EA96E09F938F936E
:105310000E944D0780EA96E00E94B4068EE896E06F
:105320000E94B406809113011F928F938BE896E040
:105330009F938F930E944D0789E896E00E94B406E0
:105340008AE796E00E94B406809112011F928F9323
:1053500087E796E09F938F930E944D0785E796E03D
:105360000E94B40684E696E00E94B4068091110182
:105370001F928F9381E696E09F938F930E944D0733
:105380008FE596E00E94B4068AE496E00E94B40697
:10539000809110011F928F9387E496E09F938F93E3
:1053A0000E944D0785E496E00E94B4068EE296E0E6
:1053B0000E94B40680910F011F928F938BE296E0BA
:1053C0009F938F930E944D0789E296E00E94B40656
:1053D0008DB79EB748960FB6F8949EBF0FBE8DBF8F
:1053E0001BC0CE51EC2FF0E0E15DFE4F8081809339
:1053F0005F0212C061E003C061E006C06AE0809114
:105400005F020E941E2508C080915F020E94C12594
:1054100003C08EEC96E013C080915F02882369F090
:105420001F928F9388EC96E09F938F930E944D0775
:105430000F900F900F900F9004C085EC96E00E94A3
:10544000B40681E006C01092600280E002C080E0F5
:1054500000CFCF9108950E94322A6894B1110C9424
:10546000C12A08950E94A62A88F09F5798F0B92F64
:105470009927B751B0F0E1F0660F771F881F991F89
:105480001AF0BA95C9F714C0B13091F00E94C02A41
:10549000B1E008950C94C02A672F782F8827B85F51
:1054A00039F0B93FCCF3869577956795B395D9F7E1
:1054B0003EF490958095709561957F4F8F4F9F4FEB
:1054C0000895E89409C097FB3EF4909580957095F7
:1054D00061957F4F8F4F9F4F9923A9F0F92F96E940
:1054E000BB279395F695879577956795B795F111B5
:1054F000F8CFFAF4BB0F11F460FF1BC06F5F7F4F52
:105500008F4F9F4F16C0882311F096E911C0772363
:1055100021F09EE8872F762F05C0662371F096E86C
:10552000862F70E060E02AF09A95660F771F881F3B
:10553000DAF7880F9695879597F9089557FD905853
:10554000440F551F59F05F3F71F04795880F97FB47
:10555000991F61F09F3F79F0879508951216130601
:105560001406551FF2CF4695F1DF08C01616170630
:105570001806991FF1CF8695710561050894089565
:10558000E894BB2766277727CB0197F908950E94F7
:10559000DA2A0C944B2B0E943D2B38F00E94442BAE
:1055A00020F0952311F00C94342B0C943A2B1124F9
:1055B0000C94C12A0E949E2A70F3959FC1F3950F07
:1055C00050E0551F629FF001729FBB27F00DB11D87
:1055D000639FAA27F00DB11DAA1F649F6627B00D17
:1055E000A11D661F829F2227B00DA11D621F739F00
:1055F000B00DA11D621F839FA00D611D221F749F0E
:105600003327A00D611D231F849F600D211D822F54
:10561000762F6A2F11249F5750409AF0F1F088237B
:105620004AF0EE0FFF1FBB1F661F771F881F9150A8
:105630005040A9F79E3F510580F00C94342B0C94F8
:10564000C12A5F3FE4F3983ED4F38695779567953A
:10565000B795F795E7959F5FC1F7FE2B880F911DD2
:105660009695879597F9089597F99F6780E870E078
:1056700060E008959FEF80EC089500240A941616C8
:10568000170618060906089500240A941216130630
:10569000140605060895092E0394000C11F48823BE
:1056A00052F0BB0F40F4BF2B11F460FF04C06F5FDA
:1056B0007F4F8F4F9F4F0895991B79E004C0991F2A
:1056C000961708F0961B881F7A95C9F7809508955C
:1056D00097FB072E16F4009407D077FD09D00E949F
:1056E000822B07FC05D03EF4909581959F4F08953D
:1056F000709561957F4F0895EE0FFF1F0590F4910F
:10570000E02D0994AA1BBB1B51E107C0AA1FBB1FB8
:10571000A617B70710F0A61BB70B881F991F5A953D
:10572000A9F780959095BC01CD010895F999FECF18
:1057300092BD81BDF89A992780B50895A8E1B0E09F
:1057400042E050E00C94B92B262FF999FECF1FBAF6
:1057500092BD81BD20BD0FB6F894FA9AF99A0FBE9A
:10576000019608950E94A42B272F0C94A52BDC01F1
:10577000CB01FC01F999FECF06C0F2BDE1BDF89A5C
:10578000319600B40D9241505040B8F70895F89406
:02579000FFCF49
:1057920005CA08BB0998096409300901012E0228CB
:1057A20008140A321E404D362239EC039F03690366
:1057B20047030E0381029A02B302CC02EC020001FB
:0A57C20002030405060708090000B1
:00000001FF
